:100000000C941A050C9437050C9437050C94742D38
:100010000C9437050C9437050C9437050C94370570
:100020000C9437050C9437050C94DD290C94B52AF3
:100030000C94D4160C9437050C9437050C943705A2
:100040000C9437050C9437050C9437050C94370540
:100050000C9437050C94B9290C9437050C9437058A
:100060000C9437050C9437050C9437050C94370520
:100070000C9437050C9437050C9437050C94370510
:100080000C9437050C9437050C9437050C94370500
:100090000C9437050C9437050C9437050C943705F0
:1000A0000C9437050C9437050C94370505010902AB
:1000B000A10185020901A1000509190129081500FE
:1000C0002501950875018102050109300931158165
:1000D000257F95027508810609381581257F9501D0
:1000E00075088106050C0A38021581257F95017572
:1000F000088106C0C00660FF0961A1010962150000
:1001000026FF009520750881020963150026FF006F
:10011000952075089102C005010906A1010507197E
:10012000E029E71500250195087501810295017503
:100130000881010507190029FF150026FF00950613
:100140007508810005081901290515002501950587
:1001500075019102950175039101C000AF00AE00D9
:1001600000000000003E5B4F5B3E003E6B4F6B3E6D
:10017000001C3E7C3E1C00183C7E3C18001C577D39
:10018000571C001C5E7F5E1C0000183C180000FF1E
:10019000E7C3E7FF00001824180000FFE7DBE7FFD4
:1001A0000030483A060E00262979292600407F05AE
:1001B000050700407F05253F005A3CE73C5A007F79
:1001C0003E1C1C0800081C1C3E7F0014227F2214C9
:1001D000005F5F005F5F0006097F017F00006689A6
:1001E000956A0060606060600094A2FFA2940008BD
:1001F000047E04080010207E20100008082A1C0835
:1002000000081C2A0808001E10101010000C1E0CFC
:100210001E0C0030383E383000060E3E0E06000040
:10022000000000000000005F000000000700070061
:1002300000147F147F1400242A7F2A12002313083D
:100240006462003649562050000008070300000091
:100250001C224100000041221C00002A1C7F1C2A95
:100260000008083E080800008070300000080808F8
:100270000808000000606000002010080402003E32
:100280005149453E0000427F4000007249494946BD
:10029000002141494D33001814127F1000274545B5
:1002A0004539003C4A4949310041211109070036CE
:1002B0004949493600464949291E000000140000FA
:1002C00000004034000000000814224100141414FF
:1002D0001414000041221408000201590906003ECE
:1002E000415D594E007C1211127C007F494949360C
:1002F000003E41414122007F4141413E007F49494A
:100300004941007F09090901003E41415173007FC5
:100310000808087F0000417F4100002040413F0164
:10032000007F08142241007F40404040007F021CB3
:10033000027F007F0408107F003E4141413E007F64
:1003400009090906003E4151215E007F091929462D
:100350000026494949320003017F0103003F404024
:10036000403F001F2040201F003F4038403F0063B7
:1003700014081463000304780403006159494D43D1
:1003800000007F414141000204081020000041416B
:10039000417F000402010204004040404040000050
:1003A00003070800002054547840007F2844443854
:1003B00000384444442800384444287F00385454CA
:1003C00054180000087E0902001824241C78007FBD
:1003D000080404780000447D4000002040403D00B7
:1003E000007F102844000000417F4000007C04781A
:1003F0000478007C08040478003844444438007CC5
:100400001824241800182424187C007C08040408EC
:100410000048545454240004043F4424003C404009
:10042000207C001C2040201C003C4030403C00440C
:1004300028102844004C9090907C004464544C4414
:10044000000008364100000000770000000041363F
:100450000800000201020402003C2623263C0000A2
:10046000000000000000000000000000000000008C
:1004700000000000000000C0F0F88C86C6E7FFFF17
:10048000FFFFFFFFFEFCFCF8E080000000F0F0F052
:100490000000C0E0F07070000000000000000000EC
:1004A00000000000000000000000000000F8F8F864
:1004B000000000000000000000000000000000003C
:1004C000000000F8F8F80000F8F8F800000000005C
:1004D00000000000000000000000000000E0F0F05C
:1004E000F0E0ECEEF7F37020007C7C7C7E007E7EFA
:1004F0007E7F7F7F000080C0E07E5B4F5BFEC000A0
:1005000000C000DCD7DEDEDED7DC00C0000000006B
:1005100000000000000000000000000000000000DB
:1005200000000000000000000000000000000000CB
:1005300080E07078686C64C7C7C7C7C7C7E73F1F4C
:100540000F3FFFFFFFFFFFFF3F0F000000FFFFFF18
:100550001E3FFFF3E1800000F8FCFE3636363EBC5D
:10056000B8000E3EFEF080F0FE3E0E0000FFFFFFE2
:10057000060606FEFEFC7000E6F6F63636FEFEFCCB
:10058000000000FFFFFF0000FFFFFF000000000071
:10059000000000000000000000000000000F1F3FEE
:1005A0007F7F7F7F7F3F1E0C001F1F1F3F003F3F4D
:1005B0003F7F7F7F00307B7F7830202030787F3B0B
:1005C0000003000F7F0F0F0F7F0F000300000000DC
:1005D000000000000000000000000000000000001B
:1005E0000000000000000000000000000000003CCF
:1005F0007F6360E0C0C0C0C0C0C0C0C0FFFFC060BB
:1006000030180F0303030100000000000003030380
:1006100000000003030303000103030303030303B8
:1006200001007070393F1F07010000000001030343
:100630000303030303010000010303030303030196
:100640000000000303030000030303000000000098
:10065000000000000000000000000000000000009A
:10066000000000000000000000000000000000008A
:10067000000000000000000000000000000000007A
:10068000000000000000000000000000000000006A
:100690000000000000000000000000000000000951
:1006A000025B00030100A0FA09040000010301013C
:1006B00000092111010001224400070581030800FF
:1006C00001090401000203000000092111010001D9
:1006D00022220007058203200001070503032000F2
:1006E00001090402000103000000092111010001B9
:1006F00022490007058403200001120100020000C6
:1007000000085759000400010102000114034B00C6
:1007100065007900620061006C006C0034003400F8
:100720000000100359006F0077006B006500650042
:100730007300000004030904290014001A000800D3
:10074000150017002B0004001600070009000A001E
:10075000E1001D001B000600190005000000E2007A
:10076000E30091212C4190434C00130012000C0037
:1007700018001C00240233000F000E000D000B00B7
:1007800087003800370036001000110000004600D6
:10079000E600913128422A0001003A003B003C006B
:1007A0003D003E00010001000100520028004C0005
:1007B00001000100500051004F002A00000001001C
:1007C000010001000100010044004300420041001B
:1007D00040003F004500D300D2005200D1004B0042
:1007E000010001004F00510050004E0000000100C8
:1007F0000100010001000100010034022400250075
:1008000026002502010033022100220023003000CF
:1008100001002D021E001F002000300200002700F2
:100820003700010001000100010021022F00230216
:100830001E0226021F02340020022E022D0032006A
:10084000890238022F022E008702320200000100C6
:100850000100010001004C002078010001000100AE
:100860000100010021782378257827780100087E8F
:1008700022782478267828780100097E0000007C00
:10088000007E01000100010030782F782E782D784D
:100890002C782B7801000100347833783278317865
:1008A000017E0100047E027E037E057E0000007C46
:1008B000007E01000100010080818283848586879B
:1008C00088898A8B8C8D8E8F9091929394A0A1A20F
:1008D000A3A4A5A6A7A8A9AAABACADAEAFB0B1B270
:1008E000B3B4C0C1C2C3C4C5C6C7C8C9CACBCCCDC6
:1008F000CECFD0D1D2D3D40061626364656667681D
:10090000696A6B6C6D6E6F707172737475767778DF
:10091000797A3132333435363738393052454254AA
:100920005F2D3D5B5D5C233B27602C2E2F20202715
:1009300000204B00202043004B6579203A202052B4
:100940000020204400303020205300202020202090
:100950004350490042616C6C3A004C617965723ACF
:100960000000DA0281FFD9F1DB20A4A62EAF00A09F
:10097000C0D30000A1C8D30000AED580A81F408D11
:100980001420000000000000000000000000000033
:100990000000000000000000000000000000000057
:1009A000000000000000007E0F00D4FFFFFFC70022
:1009B00000007800000000000000002A2B28000042
:1009C00000000000000000000000000000002900FE
:1009D0000000002C1E3420212224342627252E3608
:1009E0002D3738271E1F2021222324252633333676
:1009F0002E37381F0405060708090A0B0C0D0E0FC9
:100A0000101112131415161718191A1B1C1D2F314B
:100A100030232D350405060708090A0B0C0D0E0FAF
:100A2000101112131415161718191A1B1C1D2F312B
:100A300030354C0011241FBECFEFDAE0DEBFCDBF52
:100A400011E0A0E0B1E0E2E4FFE502C005900D9204
:100A5000AC39B107D9F725E0ACE9B1E001C01D928E
:100A6000AB32B207E1F70E946B240C94782F0C9400
:100A70000000AC019B01860F971F2095309557FD14
:100A800007C02823392337FF09C08FEF9FE7089558
:100A9000282B392B37FD02C080E090E8089520E232
:100AA00087FF02C081952DE23AE0632F0E94E62E77
:100AB000905D9093270581110CC02093260520E2BC
:100AC000822F20E2809325052093240584E295E07F
:100AD0000895632F0E94E62E905D9093260588234B
:100AE00079F3805DEFCF8F708A3010F4805D0895C8
:100AF000895A089580910205F90180830895CF9362
:100B0000DF93E2E0F5E083819481A581B681E9017C
:100B100088839983AA83BB831482138216821582E9
:100B2000DF91CF910895982F82958F70882311F0CF
:100B3000982F84E0292F26952695222311F08E5F89
:100B4000922F969591118F5F08958093B504089523
:100B5000292F983098F5863088F590E036E0239F6D
:100B6000800D911D1124282F277041E001C0440FF2
:100B70002A95EAF723E0969587952A95E1F7FC01F7
:100B8000EE0FFF1FE80FF91FE756FB4F20E030E0A4
:100B900070E05191DF011197CB01022E02C09695B2
:100BA00087950A94E2F781708195852784238527AC
:100BB0008C932F5F3F4F2330310559F70895292F2C
:100BC000983078F5863068F590E036E0239F800D08
:100BD000911D1124682F677023E0969587952A95BB
:100BE000E1F7FC01EE0FFF1FE80FF91FE756FB4F7F
:100BF00040E050E080E0219130E0062E02C03695C2
:100C000027950A94E2F721703327042E01C0220FA2
:100C10000A94EAF7822B4F5F5F4F4330510559F733
:100C2000089580E008958091BC049091BB049813CE
:100C300001C008958F5F8770FACF982F90958091AB
:100C4000B20489238093B2040895803E9105D1F1C6
:100C5000C8F48133910509F47FC048F489329105C5
:100C600009F46FC08A32910509F47DC00895893373
:100C70009105E1F082389105C9F08533910509F4B9
:100C80005BC00895843E9105D1F148F4823E910500
:100C900031F1833E910541F181EE90E00895863E69
:100CA0009105C1F1873E9105E1F108952091B804C5
:100CB0002370211165C02091B90423FF14C089E27B
:100CC00090E008952091B80420FD43C03091B9040C
:100CD00030FF09C024FF4EC080E090E008952091CD
:100CE000B80422FDF7CF08952091B80422FD45C035
:100CF0003091B90430FD44C024FFF5CFEDCF2091F1
:100D0000B90421FFF0CF8091B80484FDE5CF87EED0
:100D100090E008952091B80423FFE5CF24FDDCCFB7
:100D2000F6CF2091B80423FD2EC03091B90431FFD5
:100D3000E3CF84EE90E008952091B80425FFD3CF4F
:100D4000BECF2091B80425FD21C02091B90423FF16
:100D5000CACF89E390E008952091B80426FFC3CF5D
:100D60008AE290E008952091B80426FFBCCF81E389
:100D700090E0089583EE90E0089582EE90E008956B
:100D800080EE90E0089586EE90E0089585E390E08F
:100D9000AACF9091B80492FF10C041E0282F24718F
:100DA000243009F040E031E0282F2871283009F084
:100DB00030E0431711F02CE0822793FF10C041E090
:100DC000282F2471243109F040E031E0282F2871C8
:100DD000283109F030E0431711F02CE082273091E0
:100DE000B90430FF10C051E0282F2171213009F0E3
:100DF00050E041E0282F2871283009F040E05417D6
:100E000011F029E0822731FF10C041E0282F217125
:100E1000213109F040E031E0282F2871283109F014
:100E200030E0431711F029E0822794FD877E089572
:100E30001F93CF93DF930E942506EC01811522E5D5
:100E4000920708F04DC0811540E5940708F0C5C031
:100E5000883E910588F0811550E4950728F199277F
:100E60000E942506CC27DF70C82BD92BD06ACE0173
:100E7000DF91CF911F910895803E9105C0F7853A8B
:100E8000910550F4049798F781E0219709F080E0EC
:100E9000C82F80E0D82FEBCF8D5C9109D0654397A8
:100EA00030F3C0E0D0E0E3CFC11590E2D90708F0FD
:100EB000ADC0CE019A9581159F4198F78D2F0E9464
:100EC000C906182FCE0199270E942506212F30E050
:100ED000322F2227E901CC27DF71C82BD92BC7CFAE
:100EE000803842E59407C0F5803652E5950708F052
:100EF00055C0C03482E5D807B0F08C2F8695869512
:100F0000877020E2829FC0011124C37021E030E08D
:100F1000A90102C0440F551FCA95E2F7EA01C82B88
:100F2000D92BDC68A4CFC03252E5D50780F58C2FD1
:100F30008695869520E2829FC0011124C37021E02E
:100F400030E0A90102C0440F551FCA95E2F7EA013B
:100F5000C82BD92BDD688BCF803C52E5950758F420
:100F60008F71C03AD24578F590E0982F8827EC0130
:100F7000C46FD06A7CCF805C9245809708F091CF97
:100F8000DC2FCC27CC27DF71C06FD06A70CFCF7138
:100F9000D0E0DC2FCC27C16FD06A69CF86958695CB
:100FA000877020E2829FC0011124C37021E030E0ED
:100FB000A90102C0440F551FCA95E2F7EA01C82BE8
:100FC000D92BDA6854CF0E94C906C82FD0E0DC2F95
:100FD000CC27CC27DF71D0624ACF8F710E94C9061F
:100FE00065E0D695C7956A95E1F7CF70D0E0DC2F24
:100FF000CC27282F30E084FF05C054E0220F331F98
:101000005A95E1F7C22BD32BD06931CF8D2F8F7139
:101010000E94C906182FCE0199270E942506212F6C
:1010200030E0322F222722273F71282B392BE9016C
:10103000D2CF80E00895F894E82FE295EF70F0E0C9
:1010400041A18F7021E030E0B90102C0660F771F27
:101050008A95E2F7CB01962F9095942391A392A1C4
:10106000892B82A378940895E3E1F1E0ACE3B4E046
:101070001B968C911B9780A31C968C9183AB089533
:1010800080916C01811114C080916E01811110C09A
:1010900080916D0181110CC09091B7049695969541
:1010A000969581E020916401921380E0817008950B
:1010B00081E0FCCFE3E6F1E0828591E08927828739
:1010C00010861782089590916E01882341F09F5FEA
:1010D00090936E0110926B0110926A0108959150E5
:1010E000F7CFFC01680F791F8FEF91E3E617F70741
:1010F00009F408952191822728E030E087FF08C095
:10110000880F89272150310921153105B9F7EECF14
:10111000880FF8CF63E070E086E494E00E947108E5
:1011200090914504891318C0E0914604EA30A4F474
:1011300088E0E802F0011124ED5EFE4F0680F781A1
:10114000E02D309749F029E634E04091480469E405
:1011500074E08091470409950895809100058823E3
:1011600059F0E0918F04F0919004309729F00190AC
:10117000F081E02D0995089580E008959C01FC011F
:1011800032968FEF90E04191461751F08F3F19F45E
:10119000411101C0892F9F5F9630A9F78F3F09F455
:1011A0000895280F311D87FD3A95F901628308954E
:1011B0009C01FC013296285F3F4F8191861303C04A
:1011C000DF0111971C92E217F307B9F70895A4E025
:1011D000B0E0EDEEF8E00C94B32E8FB7F8942091C8
:1011E000300430913104409132045091330429830A
:1011F0003A834B835C838FBF69817A818B819C8129
:101200002496E2E00C94CF2E0F931F93CF93DF939D
:10121000FC01EB0120911405211101C024E0608143
:1012200071812150CB01022E02C0959587950A94B9
:10123000E2F7DC01022E02C0AA0FBB1F0A94E2F7FC
:101240006A1B7B0B71836083628173818B01022E29
:1012500002C0159507950A94E2F7D80102C0AA0FBB
:10126000BB1F2A95E2F76A1B7B0B7383628321E81D
:101270000138BFEF1B072CF0202F003811050CF0B0
:101280002FE72D8381383FEF930774F18038910564
:101290006CF5982F91959C83442319F021952D830B
:1012A0008C830E94E708462F572FBC018D81811146
:1012B00003C08C818823E1F04093150550931605F7
:1012C000609317057093180580911905982F97FD65
:1012D00091959C3020F4800F809319051D82DF9139
:1012E000CF911F910F91089581E8D3CF8FE7D1CF90
:1012F0008091150590911605A0911705B0911805DC
:10130000481B590B6A0B7B0B44365105610571056F
:10131000D8F210921905D8CFCF93C82F80910F051E
:101320008C1751F00E94E708609310057093110527
:101330008093120590931305C0930F05CF910895E4
:10134000CF93C82F0E949305982F81E0943009F025
:1013500080E00E948C09C093B604CF91089521E0EB
:1013600030E001C0220F8A95EAF78091B604822B03
:101370000E94A009089521E030E0A90102C0440FB5
:10138000551F8A95E2F7CA0180959091B60489238A
:101390000E94A00908959091B704809589238093B5
:1013A000B704282F277021110DC0891759F090918B
:1013B000B90492FF07C08695869586950E94BB0961
:1013C0001092B70408959091B60421E030E0F9013D
:1013D00001C0EE0F8A95EAF7D90102C0AA0FBB1F20
:1013E0006A95E2F7EA2B01C0220F4A95EAF7892FA6
:1013F0008E23E81305C0892F822B0E94A00908952F
:101400002095822F8923F9CFA4E0B0E0EAE0FAE04A
:101410000C94B32E80910005882371F00E94E70898
:1014200069837A838B839C8369817A818B819C8198
:101430002496E2E00C94CF2E0E94E70869837A8319
:101440008B839C838091890490918A04A0918B0462
:10145000B0918C0429813A814B815C81280F391F1E
:101460004A1F5B1F29833A834B835C83DDCF87E769
:1014700097E7909301088093000888E19AE00FB6FF
:10148000F894A895809360000FBE90936000FFCF02
:101490008091CA01089508950895FC019B018091EF
:1014A000C0019091C1018617970740F0672B29F47E
:1014B0008091E8008E778093E800C90140E00097B2
:1014C00041F4411106C08091E80082FF2FC080E006
:1014D000089520911F042223A9F12530A9F120911C
:1014E000E80023FD2DC02091E80022FDECCF2091E3
:1014F000E80020FFE4CF3091F3002091F200009744
:1015000019F02830310558F041E02830310509F054
:1015100040E02091E8002E772093E800D0CF419161
:101520004093F10001972F5F3F4FE9CF80911F0457
:10153000882341F0853041F08091E80083FFC3CFDC
:1015400081E0089582E0089583E008958091BA01D2
:1015500087FF13C08091E80082FF06C08091E800F9
:101560008B778093E80004C080911F048111F2CF33
:10157000089580911F048823D9F38091E80080FFAB
:10158000F8CF8091E8008E77ECCF2091E400309185
:10159000E50095E6A9018091EC008170882331F087
:1015A0008091E80080FF06C080E008952091E80067
:1015B00022FD1BC080911F04882391F0853091F09B
:1015C0008091EB0085FD10C02091E4003091E50092
:1015D0004217530701F391509111DCCF84E0089535
:1015E00082E0089583E0089581E00895E8EDF0E059
:1015F00080818E7F80831092E2001092DA00109238
:10160000E100A0EEB0E08C9181608C9380818F77B7
:10161000808319BCA7EDB0E08C918E7F8C93808184
:101620008F7E80831092B9010895982FE42FE27085
:101630009093E900891308C0762F242F50E0E11120
:1016400011C091E0980FF4CF7091EC002091ED0063
:101650005091F00021FD06C09F5F973049F78093BD
:10166000E90008953091EB003E7F3093EB0030911C
:10167000ED003D7F3093ED003091EB003160309311
:10168000EB007093EC002093ED005093F00020915C
:10169000EE0027FDE1CF0895A0E0B0E0E2E5FBE039
:1016A0000C94AD2EC8EDD0E088818F7E8883E7ED65
:1016B000F0E080818160808384E082BF81E080935C
:1016C000B90188818E7F888302EE10E0F8011082D4
:1016D0001092DA0081EEC82ED12CF601108288819A
:1016E0008F77888388818068888388818F7D8883CD
:1016F00019BC10921F041092B80110920C041092A1
:10170000B70190EEE92EF12CF70180818B7F808369
:1017100088818160888342E060E080E00E94150B50
:10172000F60180818E7F8083F801808181608083D3
:10173000808188608083F70180818E7F80838881AB
:1017400080618883CDB7DEB7E8E00C94C92EE091C4
:10175000BC049091BB0427E0E91302C080E0089527
:10176000AE2FB0E02E9FF0011124E354FB4F3181E6
:10177000361306C03081381303C03581341304C0DA
:10178000FD013196E770E8CF81E008950F931F9334
:10179000CF93DF93EB018A0190911F04943079F588
:1017A0008093E9008FEF9091E80095FD07C095EDDB
:1017B0009A95F1F7000081508111F5CF8091E800F2
:1017C00085FF1DC00E94C50A811114C08091E800E8
:1017D00085FD06C08091E8008E778093E800F2CF07
:1017E00088818093F100015011090115110511F054
:1017F0002196ECCF8091E8008E778093E800DF910E
:10180000CF911F910F910895CF93DF93D82FC92FB8
:1018100048E050E0682F792F81E00E94C60B88E0F5
:10182000ED2FFC2FA2ECB1E001900D928A95E1F72B
:10183000DF91CF910895BC0146E050E084E00E9422
:10184000C60B0895A0E0B0E0E8E2FCE00C94AB2EFB
:10185000F82EE92EB62EA72E8A0180912B04CC24D7
:10186000C394D12C8A3018F48AE0C82ED12CC1E060
:10187000D0E06B2D7A2D8F2D9E2DF80109958111C9
:1018800016C02196CC16DD0694F0CC9FC001CD9FEA
:10189000900D900D112420E030E045E34A95F1F7DA
:1018A00000002F5F3F4F28173907B9F7E2CFCDB7B8
:1018B000DEB7EAE00C94C72E9091B90492FB222780
:1018C00020F9281779F080FB92F99093B904609180
:1018D000B8047091B90484E090E00E94622F82E025
:1018E0000E94CB0908950F931F93CF93DF93853008
:1018F00030F5683020F5463010F5C42FD0E0CC0F1D
:10190000DD1F2CE0629FC00DD11D112430E6839FA6
:10191000C00DD11D1124CE0189960E94202F082FC1
:1019200010E0102F0027CE018A960E94202F9801E8
:10193000282BC901DF91CF911F910F91089580E06D
:1019400090E0F8CF462F672F783038F4463028F4EF
:10195000853018F40E94730C089580E090E008959B
:10196000A0E0B0E0E6EBFCE00C94AE2E7C01009130
:10197000B6048091B504082BC4E0D0E010E0C801A3
:101980000C2E02C0959587950A94E2F780FD09C058
:101990002197A8F7D12C8D2DCDB7DEB7E7E00C94B9
:1019A000CA2EDC2EB7018C2F0E94A20C0E941807B1
:1019B000019771F3F0CF0F931F93CF93FC018581B3
:1019C00000811181882391F0662381F0C8010E9473
:1019D000B00CC82F682FC8010E94A805B8018C2F31
:1019E0000E94A20CCF911F910F910895C8010E94EF
:1019F000DF05C82FF3CFCF93DF93D82FC92F0E94D5
:101A0000B00C6D2F7C2F0E94A20C0E941807DF9152
:101A1000CF910895FC0184818823A1F08081918178
:101A20000E94FB0C282F92959F70963091F060F4E5
:101A3000925F9F70923030F481E0203F79F030F473
:101A4000283E30F080E004C09A5FF3CF243FD1F706
:101A5000089581E0283E18F0213FF9CF08950895B8
:101A600085E290E00E94202F843289F486E290E0A3
:101A70000E94202F823059F487E290E00E94202FAC
:101A800091E0813109F090E0892F8170089580E024
:101A9000FCCFA4E0B0E0EFE4FDE00C94B32E88E2CC
:101AA00090E00E94202F282F30E040E050E0CA0153
:101AB000B9012496E2E00C94CF2E9091AC04809171
:101AC000EF01981308C08091AD04882329F190910B
:101AD000F001891709F1E0918F04F091900430979B
:101AE000A9F581E09091AC0426E0EBEAF4E0DF0197
:101AF000322F1D923A95E9F79093AC04AEEEB1E027
:101B000001900D922A95E1F781112AC081E091118F
:101B100001C080E0817008958091AE04882321F097
:101B20009091F1018913D7CF8091B004882321F0DF
:101B30009091F3018913CFCF8091AF04882321F0D6
:101B40009091F2018913C7CF80E0CCCF82E08093DF
:101B5000AB040680F781E02D8BEA94E00995C1CFB4
:101B600081E0D8CF815D883090F44091AC0421E0D1
:101B700030E0F90102C0EE0FFF1F8A95E2F7CF01B6
:101B8000662331F0842B8093AC040E945D0D089590
:101B900080958423F8CFECE6F1E083E0DF011D922D
:101BA0008A95E9F7E8E6F1E084E0DF011D928A9585
:101BB000E9F708958091B2049091BA04892B40917D
:101BC000B304442389F090E020EA31E0F901508128
:101BD0002F5F3F4F51119F5F51E0263A3507B1F714
:101BE00091111092B304842B80939E0148E050E041
:101BF00061E974E08EE991E00E940A2F892BA9F037
:101C000088E0EEE9F1E0A1E9B4E001900D928A9557
:101C1000E1F7E0918F04F0919004309731F0028069
:101C2000F381E02D8EE991E0099508951092B204B8
:101C3000E0EAF1E086E0DF011D928A95E9F7109273
:101C4000BA040E94DA0D08950E94160E2FEF84E365
:101C50009CE0215080409040E1F700C0000088E106
:101C60009AE00FB6F894A895809360000FBE909309
:101C70006000FFCFAAE2B0E0E0E4FEE00C94B22EF8
:101C80008AEB91E0FC0101962091F100208321E094
:101C9000823C9207B9F78091BB01893009F456C0A4
:101CA000C8F4823009F4B3C0833009F482C08130B3
:101CB00071F18091E80083FFE7C08091BA019091B3
:101CC000BB019A3008F0E0C0E92FF0E0E658F04D93
:101CD0000C94F42E8A3009F489C08B3051F780912E
:101CE000BA01813231F78091BE019091BF01892BF9
:101CF00001F78091E800877F8093E8000E94A60AA0
:101D00008091BC01809300010E94160ED2CF809179
:101D1000BA01813A71F68091E800877F8093E800EC
:101D20008091BE019091BF01892B61F060E080E05D
:101D300090E070E00E944D0A8091E8008B778093DC
:101D4000E800B7CF68E082EC91E0F3CF8091BA0170
:101D5000813209F0AECF8091BE019091BF018D7F9D
:101D6000892B09F0A6CF8091E800877F8093E80057
:101D70008091E80082FF18C09091F3008091F200FA
:101D8000029731F48091F100813011F0863021F416
:101D90008091F1008093CA018091E8008B77809355
:101DA000E8000E94A60A85CF80911F048111E0CF30
:101DB00080CF8091BA01813A09F07BCF8091BE013A
:101DC0009091BF01892B09F074CF8091E800877F43
:101DD0008093E8008091E80080FFFCCF80910001B3
:101DE0008093F1008091E8008E77D9CF8091BA017D
:101DF000813209F05ECF8091E800877F8093E80010
:101E00000E94A60A8091BD018093B60152CF8091B5
:101E1000BA01813A09F04DCF8091E800877F809325
:101E2000E8008091E80080FFFCCF8091B601D8CF18
:101E3000803889F0823841F58091BE018F708730FB
:101E400018F58093E9008091EB0085FB882780F9E5
:101E50001092E90006C08091B70190910C04911195
:101E600082609091E800977F9093E8008093F10062
:101E70001092F1008091E8008E7723C0811116C086
:101E80008091BC01813011F18091E80083FF0AC08C
:101E90008091E800877F8093E8008091EB0080626A
:101EA0008093EB00AA96E3E00C94CE2E823061F78B
:101EB0008091BC01882389F01092E9008091E800AC
:101EC000877F8093E8000E94A60ADECF81E09330EE
:101ED00009F080E080930C04EFCF8091BE018F70F9
:101EE0002FEF280F263080F68093E9002091EB0039
:101EF00020FFE2CF933031F48091EB008062809339
:101F0000EB00DACF9091EB0090619093EB0021E031
:101F100030E0A90102C0440F551F8A95E2F74093B3
:101F2000EA001092EA008091EB008860E8CF81110E
:101F3000ABCF1091BC011F778091E3008078812B9B
:101F40008093E3008091E800877F8093E8000E94FF
:101F5000A60A8091E80080FFFCCF8091E3008068B2
:101F60008093E30083E0111101C082E080931F049D
:101F70008BCF8058823008F087CF4091BC015091C0
:101F8000BD014C3D83E0580799F583E08A838AE2DE
:101F900089834FB7F894DE01139620E03EE051E2CA
:101FA000E32FF0E050935700849120FF03C0829507
:101FB0008F703F5F8F708A30C8F0895C90E08D939E
:101FC0009D932F5F243161F74FBF8091E800877F99
:101FD0008093E8006AE270E0CE0101960E944D0A0B
:101FE0008091E8008B778093E8004ECF805DE6CF4C
:101FF0008091BE019091BF01252F332723303105F9
:1020000009F44AC078F52130310509F479C08BE52F
:1020100090E0EFE9F6E02230310509F035CF20916C
:10202000E800277F2093E8002091C0013091C10192
:102030008217930708F49C0140E02115310509F04F
:1020400064C0411162C08091E80082FDC9CF8091D7
:102050001F04882329F2853019F28091E80083FF5C
:10206000F2CFBECF2132310509F43BC02232310517
:1020700009F00ACF8330910508F006CFFC01EE0F7E
:10208000FF1FED58FE4F0190F081E02D80599E4FCB
:10209000DC018C9190E011C0CA019927413089F090
:1020A00082309105B1F0892B09F0EECEE4E3F7E040
:1020B000E4918E2F90E0E4E3F7E0009709F4E4CE9A
:1020C000AECFE2E2F7E0E4918E2F90E0E2E2F7E0BB
:1020D000F4CFECE0F7E0E4918E2F90E0ECE0F7E055
:1020E000ECCF8330910508F0CFCEFC01EE0FFF1F3F
:1020F000E758FE4F0190F081E02D89E090E08FCF0E
:1021000082E190E0EAEFF6E08ACF80911F04882315
:1021100009F466CF853009F463CF8091E80083FD30
:102120005FCF8091E80082FD8ECF8091E80080FF34
:1021300084CF9091F3008091F2002115310519F0C0
:102140008830910550F041E0089709F040E0809117
:10215000E8008E778093E80070CF44914093F100BF
:102160003196215031090196E8CF803809F08CCEA4
:102170008091E800877F8093E8008091B801809388
:10218000F10078CE811180CE1091BC01123008F0A0
:102190007BCE8091E800877F8093E8001093B801A0
:1021A0000E94A60A1123D1F084E080931F0442E02C
:1021B00061EC81E00E94150B42E261EC84E00E9438
:1021C000150B42E261EC82E00E94150B42E260ECEA
:1021D00083E00E94150B80911F0456CE8091E3008E
:1021E00087FDE2CF81E0E1CFCF93C82F8823A1F014
:1021F0008CEF8C0F813A90F4E0EAF1E08191C817FE
:1022000039F181E0E63AF807C9F76C2F8EE991E0E1
:102210000E94BE080E94DA0DCF91089580E28C0FD3
:10222000883068F4C77021E030E001C0220FCA9501
:10223000EAF78091B204822B8093B204EBCF83E360
:102240008C0F833148F761E08C2F0E94B20DE4CFF0
:102250006C2F8EE991E00E94D8080E94DA0DD5CF4C
:10226000882309F19CEF980F913A40F4682F8EE98A
:1022700091E00E94D8080E94DA0D089590E2980F2C
:10228000983050F4877091E001C0990F8A95EAF771
:10229000892F0E941D06EFCF93E3980F933118F416
:1022A00060E00E94B20D08951F93CF93DF93182F23
:1022B000EB010E94F4108FE99FE00197F1F700C055
:1022C000000021972097B9F7812F0E943011DF91EC
:1022D000CF911F910895882339F09091B204892BF2
:1022E0008093B2040E94DA0D0895882321F00E94A1
:1022F0001D060E94DA0D0895A0E0B0E0E2E8F1E1E9
:102300000C94AD2EFA0169017801C82F880FDD0BFE
:102310003097B1F0DE0193E0AA0FBB1F9A95E1F769
:10232000AD5EBE4F11968D919C911297845C9B4F30
:102330004C9150E0E417F50708F4AF010E94172F05
:10234000CE010E941A2E182F8823D1F0E114F10437
:10235000B9F083E0CC0FDD1F8A95E1F7FE01ED5E59
:10236000FE4F438150E0E416F50608F4A701CD5E68
:10237000DE4F6C817D81645C7B4FC6010E94172F0C
:10238000812FCDB7DEB7E8E00C94C92ECF92DF9253
:10239000FF920F931F93CF93DF9300D000D00F9243
:1023A000CDB7DEB76B0101E010E09E012B5F3F4F20
:1023B00040E050E060E070E080E00E947C11F82E88
:1023C000882309F43EC0409138045091390460914B
:1023D0003A0470913B042FB7F894809130049091A7
:1023E0003104A0913204B09133042FBF841B950BAC
:1023F000A60BB70B84369105A105B10550F464E036
:1024000070E08DE394E00E9471089D81891709F4C2
:102410004BC004E010E09E012F5F3F4F40E050E0D2
:1024200060E070E081E00E947C11182F64E070E0B1
:102430008DE394E00E9471089D81981302C01111F0
:102440001CC0F12C8091340490913504A091360485
:10245000B0913704F60180839183A283B3838F2DDB
:102460000F900F900F900F900F90DF91CF911F91D1
:102470000F91FF90DF90CF9008950E94E70860933E
:1024800038047093390480933A0490933B04898113
:102490009A81AB81BC818093340490933504A093DE
:1024A0003604B0933704CECF80913D0490913E0422
:1024B000A0913F04B091400489839A83AB83BC838D
:1024C000E6CFA8E0B0E0E7E6F2E10C94B12E40914F
:1024D0002C0450912D0460912E0470912F042FB77D
:1024E000F8948091300490913104A0913204B0911D
:1024F00033042FBF841B950BA60BB70B11E084365A
:102500009105A105B10520F10E94040ADC01CB016F
:102510000296A11DB11D89839A83AB83BC8300E021
:1025200010E020E030E044E050E0BE016F5F7F4FFC
:1025300082E00E947C11182F882351F00E94E70846
:1025400060932C0470932D0480932E0490932F0499
:10255000812F2896E4E00C94CD2EA5E0B0E0E3EBCB
:10256000F2E10C94AB2E8D83E62E5A01F22E680117
:1025700080912B048A3028F080E02596EAE00C94C4
:10258000C72E8D818730C4F319828A836B832C8395
:1025900063E070E0CE0102960E9471088983E092A8
:1025A0003301F092460100E010E020E030E044E02A
:1025B00050E0BE016F5F7F4F83E00E947C11882353
:1025C000D9F24E2D50E020E030E0B50184E00E94C9
:1025D0007C11882389F220E030E041E050E0BE0128
:1025E0006B5F7F4F85E00E947C11882329F20F2DBD
:1025F00010E0960140E050E060E070E086E00E946C
:102600007C11BBCF1F93CF93DF93962F122F632F95
:102610008530D8F49830C8F44630B8F4C42FD0E0F0
:10262000CC0FDD1F2CE0929FC00DD11D112490E630
:10263000899FC00DD11D1124CE0189960E94442F7F
:10264000612FCE018A960E94442FDF91CF911F9176
:102650000895AF92BF92CF92DF92FF920F931F9394
:10266000CF93DF93A12CB12CC0E06501D0E019C05D
:1026700021E030E0C43021F0F801859194919C0173
:102680004F2D6D2F8C2F0E940213F3940E5F1F4F5E
:1026900086E0F812EDCFDF5F86E0C80ED11CD8309F
:1026A00039F08601000F111F085C184FF12CE0CFA4
:1026B000CF5F80E3A80EB11CC530B9F6DF91CF9192
:1026C0001F910F91FF90DF90CF90BF90AF90089532
:1026D000CF93DF93C9E0D2E060E0CE010E94442FA7
:1026E0002196C11584E0D807B9F7DF91CF910895FD
:1026F000882381F064E285E290E00E94442F62E04A
:1027000086E290E00E94442F61E187E290E00E941F
:10271000442F08956FEF85E290E00E94442F6FEF01
:1027200086E290E00E94442F6FEFEFCF88E290E0C6
:102730000E94442F089580E00E94781360E070E0CA
:10274000CB010E9496130E9429130E94681381E016
:102750000E9478130895A0E0B0E0E1EBF3E10C945F
:10276000AD2E7C016B0164E670E088E70E94DB2BF4
:10277000EC0197FD12C000E010E0F701E00FF11F3F
:10278000849164E670E00E944A2CEC010F5F1F4FB9
:10279000C016D10611F097FFF0CF0E94CC2C81E03B
:1027A000CD2B09F080E0CDB7DEB7E8E00C94C92E60
:1027B00080910404882369F080910304882349F000
:1027C00062E070E08DE591E00E94AB138111109200
:1027D00003040895A4E0B0E0E0EFF3E10C94B32E1D
:1027E000809104048823F9F00E94E708DC01CB0102
:1027F000805A9541AF4FBF4F8093050490930604D4
:10280000A0930704B09308048091030481110BC0C6
:1028100062E070E08BE591E00E94AB13882319F031
:1028200081E0809303042496E2E00C94CF2ECF93B2
:10283000DF93682F81E06A3019F06D3031F480E069
:102840000E949714DF91CF9108958091000290919A
:10285000010226E0FC01A0EBB1E001900D922A9567
:10286000E1F7603E08F458C026E0FC0111922A9579
:10287000E9F7C0910002D091010246E050E0BE01AC
:1028800080EB91E00E940A2F9E0122503240892B5A
:1028900041F1C90145E0969587954A95E1F741E0F8
:1028A00050E0BA0102C0660F771F8A95E2F7CB01AC
:1028B0006091FE017091FF01862B972BB9016B5F30
:1028C0007F4FE5E076956795EA95E1F702C0440F02
:1028D000551F6A95E2F7842B952B9093FF01809307
:1028E000FE012A5F3F4F40910904642F70E0C90147
:1028F0000E948F2E481B463010F4240F311D2115E5
:1029000072E0370710F020E030E02E5F3D4F30934B
:1029100001022093000296CFF6E06F9FB0011124D0
:10292000615A7E4F46E050E00E94012FA2CFCF9324
:10293000382FE0910002F0910102E250F240209124
:102940000904622F70E0CF010E948F2E281B822F76
:10295000332361F066E00E94DA2EC82FC15010F4D4
:10296000CF91089580E20E941714F8CF9F01280F9D
:10297000311D2115324018F080E0E0E0F0E08E0FCC
:102980009F2F911D8E5F9D4F9093010280930002B7
:10299000E7CF0F931F93CF93DF93EC01FC010190DE
:1029A0000020E9F78F0101501109C017D10728F065
:1029B000DF91CF911F910F91089589910E94171473
:1029C000F4CFCF93DF93EC01FE018491811103C01A
:1029D000DF91CF9108950E9417142196F5CF28E03A
:1029E00030E043E060E086E30E94062B0895CF9339
:1029F000C82F0E94EF148C2F0E947B2B8FE792E050
:102A00000197F1F700C000000E94932BC82F0E948D
:102A1000AB2B9AE69A95F1F700C08C2FCF910895D1
:102A2000CF93DF93D82FC62F0E94EF148D2F80688D
:102A30000E947B2B8C2F0E947B2B0E94AB2B8FEC58
:102A400092E00197F1F700C00000DF91CF91089567
:102A5000682F893708F068E760930D0591E090933F
:102A60000E0590910205992359F06150811101C022
:102A700064E08FE00E94101560E080E50E94101570
:102A8000089520910D05211101C025E0082E000CAC
:102A9000990B820F911D1816190614F081E090E031
:102AA0000E9428150895FB0180810E942815089531
:102AB000CF93DF930E94FE2A269A0E94EF146AE5C4
:102AC0008AE30E9410152FEF80E792E021508040AA
:102AD0009040E1F700C0000082E00E94F71483E01C
:102AE0000E94F71484E00E94F71485E00E94F71416
:102AF00086E00E94F71460E080E10E94101580E0FB
:102B00000E94F714D82F81E00E94F714C82F0E946A
:102B1000AB2BD23479F4C13069F4C093020564E080
:102B20008FE00E94101560E080E50E941015DF9193
:102B3000CF91089510920205FACFACE0B0E0E3EA3D
:102B4000F5E10C94AF2E4F83588769877A878B877E
:102B50009C8780910205882399F00E94EF1480E5FC
:102B60000E947B2B0AEB0A95F1F700C00E94932B81
:102B7000887899278038910509F487C00E94AB2B8B
:102B800080910005882309F46BC00E94E708462F56
:102B9000572FBC018091FC049091FD04A091FE048C
:102BA000B091FF048A019B01081B190B2A0B3B0BF8
:102BB000083011052105310508F452C04093FC048A
:102BC0005093FD046093FE047093FF048091100500
:102BD00090911105A0911205B0911305481B590B56
:102BE0006A0B7B0B423351056105710580F410922D
:102BF000060510920505109208051092070510921F
:102C00000A051092090510920C0510920B051091FF
:102C1000010580910F05882309F468C0412FBE018A
:102C2000695F7F4F85E095E00E94040981E0412FB4
:102C3000482790910F0580910205981709F485C0E7
:102C4000BE01695F7F4F89E095E00E94040986E03C
:102C5000FE013796AEE1B5E001900D928A95E1F75D
:102C600086E0FE013796DE01119601900D928A955D
:102C7000E1F729813A814B815C816D817E8180E021
:102C800090E02C96E6E00C94CB2E0E94932B0E94B1
:102C9000932B7C010E94932B60E070E0782FE62A52
:102CA000F72A0E94932B8C010E94932B20E030E0A6
:102CB000382F022B132B0E94AB2BF894B701809175
:102CC0000505909106050E943905909306058093AD
:102CD0000505B80180910705909108050E94390506
:102CE000909308058093070578944ACF20910705B3
:102CF0003091080521388FEF3807FCF02038310576
:102D0000F4F42987809105059091060581380FEF2D
:102D10009007BCF080389105B4F48A87112321F024
:102D20002195298781958A871092060510920505BD
:102D3000109208051092070579CF21E8E2CF2FE71E
:102D4000E0CF81E8EACF8FE7E8CF20910B05309103
:102D50000C0521381FEF3107FCF020383105F4F461
:102D600029878091090590910A0581383FEF9307E3
:102D7000BCF080389105B4F48A87442321F0219572
:102D8000298781958A8710920A0510920905109269
:102D90000C0510920B055BCF21E8E2CF2FE7E0CFC7
:102DA00081E8EACF8FE7E8CF1F921FB61F92112468
:102DB0008F939F93AF93BF9380910B04811113C0A6
:102DC0008091300490913104A0913204B091330489
:102DD0004196A11DB11D8093300490933104A093BE
:102DE0003204B0933304BF91AF919F918F911F90A4
:102DF0001FBE1F9018952FB7F894809130049091C2
:102E00003104A0913204B09133042FBF0895A8E09B
:102E1000B0E0EDE0F7E10C94A52E8C01DC011496F6
:102E20008C91882309F4D6C061E0C8010E94DB0CB4
:102E30007C01F801D580DD2009F48DC197578038D9
:102E4000910508F088C1FFE0FE1508F4B2C08FEFCD
:102E500093E00E94202F8111ACC079E0C72E72E070
:102E6000D72EE11075C01A821982FE01339686E0D2
:102E7000DF011D928A95E9F76AE0462E5601BFEF01
:102E8000AB1ABB0AC6010E94202F89831A828823AD
:102E900009F48FC0813009F0A1C07601E2E0EE0EA6
:102EA000F11CC5010E94202F8A83882309F481C068
:102EB0009FEF980F933008F059C0F3E0CF0ED11C6C
:102EC000C7010E94202F8B83882309F472C01C82C3
:102ED000DE0111967D01F7018081882379F281302E
:102EE00009F0C0C08181813009F07AC05701F2E059
:102EF000AF0EB11CD70112968C9165E070E089335A
:102F000011F460E570E00E94541175012FEFE21A90
:102F1000F20A8FE99FE00197F1F700C00000AFE9E6
:102F2000BFE01197F1F700C00000EFE9FFE0319733
:102F3000F1F700C000008FE99FE00197F1F700C0B2
:102F40000000AFE9BFE01197F1F700C00000C3CF68
:102F5000C11424E0D20669F1C6010E94202FD601D7
:102F600011966D018111F4CFEA947BCF8430C1F4C6
:102F700052E0C52ED12CC7012FEFE21AF20A0E94AF
:102F8000202FE1E0F0E0EC0FFD1FEC0DFD1D808334
:102F9000882379F08C3731F4FE01EC0DFD1D12828F
:102FA000670196CF3FEFC31AD30A87E0C816D10452
:102FB00011F78091B7048770882361F0D8011596C6
:102FC0008C91882339F08091B90482FF03C082E09C
:102FD0000E94CB092896E0E10C94C12E650178CFC0
:102FE000823041F45701B2E0AB0EB11C82810E94E5
:102FF000F4108BCF833051F45701F2E0AF0EB11CC7
:10300000D70112968C910E9430117FCF843021F02D
:10301000BFEFEB1AFB0A7ACF2281C70102967C012F
:1030200080E090E0A7014F5F5F4F2053330B2A30C1
:10303000310558F0009709F469CFEFE9FFE03197C7
:10304000F1F700C000000197F5CF489EB001499EFE
:10305000700D1124C901860F971FD70111962C916D
:103060007A01E0CFE82FF0E0ED54F64F5490282F8E
:1030700026952695269530E0F901ED55F64FA4905A
:103080008770B12C082E02C0B594A7940A94E2F779
:10309000F1E0AF22BB24F901ED56F64F8490912C5C
:1030A000082E02C0959487940A94E2F791E0892251
:1030B0009924F901ED57F64FE491F0E002C0F5953F
:1030C000E7958A95E2F73F01A1E06A227724A114EF
:1030D000B104C1F48114910451F5B9E365E070E0E5
:1030E000852D5B1203C060E570E089E30E945411F6
:1030F0006114710409F40ACF65E070E08CE20E946B
:10310000541104CF81EE0E94F4108114910479F4DB
:10311000E9E365E070E0852D5E1203C060E570E0D4
:1031200089E30E94541181EE0E943011E1CF86EEB6
:103130000E94F410F9E360E570E089E35F1619F08E
:1031400065E070E0852D0E94541186EE0E943011DA
:10315000AB2849F7CDCF80916301882309F484C15E
:10316000B0E2EB16B2E5FB0608F078C0E114E2E548
:10317000FE0608F0C4C0E114F0E5FF0608F05BC0ED
:10318000E11420E4F20608F023C1E11430E2F30672
:1031900008F05BC188EEE816F10450F490EEE916F1
:1031A000F10408F471C180916E0187FDDEC0C2C0D8
:1031B000C7019A9581159F4108F05DC180916E010C
:1031C00087FD10926E01C7019927F0921B05E092CE
:1031D0001A05F8012081318130931D0520931C05CB
:1031E000F8EDFE1540F0813D910528F0D8011596C7
:1031F0006C910E94B20DF8018581F6E1EF16FCE7B3
:10320000FF0609F06EC19091B204882309F48FC2C1
:10321000892F8A7A91E0811101C090E09093B104E6
:1032200065E3811101C069E28EE991E00E94BE0868
:103230000E94DA0DBECE970145E0369527954A9556
:10324000E1F72F7033278091640190E02817390748
:1032500009F087C08D2D0E946308A5CF20E8E216F3
:1032600022E5F206D0F430E6E31632E5F30608F084
:103270006AC080E4E81682E5F80608F094CF8091F1
:10328000640190E097012F7133272817390709F05F
:103290003FC08D2D0E94630849C0F0ECEF16F2E5A7
:1032A000FF0608F480CFC701805C9245809708F440
:1032B0005FC0D80114968C91811137C180916E0145
:1032C00087FD7BC0F0921B05E0921A05D8018D9115
:1032D0009C91119790931D0580931C0515966C91F8
:1032E000B9EDEB16F10408F4F4C0862FB7E0EB1645
:1032F000BEE7FB0609F08CC00E948C095ACE809173
:10330000640190E097012F7133272817390761F086
:1033100080916E0187FD51C0F0921B05E0921A0565
:10332000F8018081918170C0DD2051F080916E01A3
:1033300087FD43C0F0921B05E0921A05D80162C0D8
:103340000E945A08E5CF8091640190E097012F71A7
:1033500033272817390751F7D110DACF0E945A08BE
:10336000E5CF80916E0187FF0AC110926E01D4CF24
:103370008091640190E097012F7133272817390756
:10338000A9F68D2D0E946308F8018681807F803523
:1033900049F080916E0187FD10C0F0921B05E0920C
:1033A0001A05BFCFD8018581882351F080916E0125
:1033B000815080936E0187FF21C010926E0182CFF1
:1033C0000E945A0880916E018F5F80936E01A2CF98
:1033D000D80116968C9116978031A0F52F2D3327A2
:1033E0002F7033278091640190E02817390701F18D
:1033F00080916E0187FFC3C010926E01F0921B0591
:10340000E0921A058D919C9190931D0580931C0567
:10341000D80115968C91882309F4EDCEF701FE575B
:10342000EA30F10508F0E7CEEC57F04D0C94F42E9D
:103430008D2D0E94630880916E0187FF6DCF1092E1
:103440006E0178CF14968C9107C0F8018681803187
:1034500008F49FCFF8018481811167C080916E01CB
:1034600087FF30CF10926E01C7019A9581159F4159
:1034700008F4A9CE27CFD80114968C911497811106
:1034800054C080916E0197CFF8018481882309F49C
:1034900015CFC7018D5C9109439708F046C08D2D6B
:1034A0000E94630880916E0187FD2DC0F0921B057C
:1034B000E0921A05D8018D919C91119790931D056A
:1034C00080931C0515966C91B9EDEB16F10408F08C
:1034D0009FCFE1EDEE16F10408F04FC0D80115962C
:1034E0008C9127E7E2162CE7F20609F056C08823F4
:1034F00009F428C181E00E94AF0943E062E081E065
:103500000E94E30956CD10926E01F0921B05E092E5
:103510001A05F8018081918190931D0580931C0507
:103520006581F8EDEF16F104D2CF0E9440088111B9
:103530001FC0DD20B9F0809164012091B6042111F3
:1035400005C081110DC00E94BB090AC030E0082EE1
:1035500002C0359527950A94E2F721702111F3CF27
:103560000E94CB0D0E94FB1690936B0180936A0121
:1035700080916E0187FD76CF77CFC7013ACEF0926A
:103580001B05E0921A05F8018081918190931D0539
:1035900080931C05858181112ECE38E7E3163CE728
:1035A000F30609F4D3C08823C9F08AE5E8168CE74E
:1035B000F80609F4FBC008F0CFC0A1E0EA16ACE7BA
:1035C000FA0609F4F1C0B3E0EB16BCE7FB0609F418
:1035D000E5C0E114ECE7FE0609F4D3C0F8018581EB
:1035E000C080D180882309F4E5C0C6010E94B00CD8
:1035F000F82E682FC6010E94A805B6018F2D0E94E3
:10360000A20C0E9418077C01D8011596BC90159752
:103610001696AC90A2942FE0A2228091B7048770F6
:10362000882309F1CB2CBB20F9F08F2D807F8034CB
:1036300069F080E28E0D8830B0F08F2D807E803270
:1036400029F4B1E0BE1578F4AA2069F08091B9049C
:1036500082FF09C082E00E94CB098091B704877085
:10366000CC24C3948111C12C8F2D82958F7088300A
:1036700009F485C108F0C3C0843008F0A0C0EF2D64
:10368000EF70DE2E823008F4CBC08F2D807F803229
:1036900019F0D29480EFD822EE2009F4F9C031E07D
:1036A000E31609F441C1BB2009F44DC1AA2009F475
:1036B0000DC1CDC080E00E9428151092140579CC70
:1036C00040910D055091140550FB47F956955370E4
:1036D00060E070E08FE090E00E94562F6ACC81E0BD
:1036E0000E94411566CC8FEFFBCF8AE0F9CF86EFC1
:1036F000F7CF80910F0591E08927FECD80911405C9
:10370000811104C085E08093140553CC8F5F181697
:1037100054F081E0F8CF80911405811102C083E05C
:10372000F2CF8150F4CF883070F387E0ECCF8091F6
:10373000B10465E3811101C069E28EE991E00E9464
:10374000D80876CD81E00E94BB09D7CE882311F03E
:1037500082E0D1CE82E0F7CFFBE5EF16FCE7FF0673
:1037600039F12CE5E2162CE7F20609F037CF80910B
:10377000B90482FB882780F991E089270E945C0CBC
:103780002DCF0E94160E3FEF84E39CE03150804025
:103790009040E1F700C000000E94370A6FEF7FEF12
:1037A00080E090E00E94622F0E94240E81E0E6CF2C
:1037B00080E0E4CFC6010E94DF05F82E1ECF8530E1
:1037C00009F4D8C0CC20B1F08091B70480FD12C0BC
:1037D000D80115961C928695869586950E94AF090C
:1037E000C8010E9407178091B70486958695869533
:1037F0000E94BB0960E0C8010E94DB0CEBCB893062
:1038000009F42EC18A5F8F708230E0F6F2EFEF127A
:103810003AC18F2D8F71B11033C10E94AF09DDC045
:103820002FE02F1518F4D29490EFD922BB20B9F0D5
:10383000DD2069F080E28E0D883010F0E11009C0C3
:103840008091B2048D298093B2040E94DA0D8E2DEE
:103850002FC08091BA048D298093BA04F6CF8E2DA3
:103860000E943011DD2009F4ADCF80E28E0D88304A
:1038700010F0E11004C08D2D0E941D0606C0D094EA
:103880008091BA048D218093BA040E94DA0D9ACFF8
:103890008091B90482FD16C0BB2069F0DD2039F0AB
:1038A0008091B2048D298093B2040E94DA0D80E0E9
:1038B0000E94F41087CF80E00E943011DD2009F4CF
:1038C00081CFD9CFBB20A1F0A11004C08D2D0E94C3
:1038D0006B1178CF81E0A81275CF8091B3049D2D34
:1038E0009823D91609F46ECF8D298093B3046ACF3B
:1038F000A11068CF8D2D0E9475119091B3048D2D6C
:103900008923882329F08D2D809589238093B30402
:103910008091B4049D2D9823992309F453CFD0941A
:10392000D822D092B4044ECFBB2029F095E09A154E
:1039300008F448CFCBCFA4E0AA1508F443CF8D2DCF
:103940000E9475113FCFAA20D1F3B9E3EB120DC04D
:10395000EFEFF7EE23E0E150F0402040E1F700C048
:1039600000008E2D0E9430112DCF8FE19EE4019733
:10397000F1F7F5CF6B2D8E2D0E94B20D23CF8F2D39
:103980008370811135C0B11028C04E2D42954695E7
:103990004770440F440F8E2D8F70042E01C0880F86
:1039A0000A94EAF72E2D2071222339F02FE030E01F
:1039B00001C0220F4A95EAF720953F2D369536959E
:1039C0003370323081F0333061F04091B5043130E2
:1039D00039F0822B84230E94A5050E94AD08F2CE07
:1039E000842B822BF8CF822B9091B5048927F3CFBB
:1039F000BB2059F1F0FEF1CF4E2D42954695477010
:103A0000440F440F8E2D8F70042E01C0880F0A942E
:103A1000EAF72E2D2071222339F02FE030E001C08B
:103A2000220F4A95EAF720953F2D3695369533704B
:103A3000323089F0333069F04091B604313041F0D2
:103A4000822B84230E94A009C8CF823030F2D4CFC9
:103A5000842B822BF7CF822B9091B6048927F2CF4B
:103A60009F2D9F70F92EBB2039F0892F0E94AF093E
:103A70008E2D0E946B11B1CF8E2D0E9475118F2D4E
:103A80000E94BB09AACFA2EFAE1580F0B0EFEB16F3
:103A9000D1F0E1EFEE16C9F1BB2009F45FC0AA2016
:103AA00009F459C08E2D0E94F41097CFF3EFEF1652
:103AB000E1F024EFE21629F1B110F1CFA11061C0BD
:103AC0008F2D8F71DDCFBB2069F034E03A1508F4FB
:103AD00084CF2F2D2F7181E090E001C0880F2A95AF
:103AE000EAF7BACF85E0A816F2CF80E0BB2009F450
:103AF000A9CF9F2D9F7181E001C0880F9A95EAF7A9
:103B0000A1CF8091B90482FD06C08F2D8F71BB209B
:103B100009F4B6CF82CEBB2099F09F2D9F71F92E6C
:103B2000892F0E94AF098091B90482FF07C0A8E0E5
:103B3000FA9EC001112483608093B7048F2D6DCE4F
:103B400081E00E94CB09B1E0BA1508F046CF82E0CF
:103B50000E94CB0942CF8F2D8F715FCEAA2009F42E
:103B6000AFCFE9E3EE120DC0FFEF27EE33E0F150E7
:103B700020403040E1F700C000008E2D0E9430113F
:103B80002CCF8FE19EE40197F1F7F5CF8091FB04F4
:103B9000803178F48091FA04882359F0E091BC04D4
:103BA0002091BB043091F6044091F50457E02E13A8
:103BB00001C008956E2F70E05E9FF0011124DF01B7
:103BC000A354BB4F14968C911497882361F11196DE
:103BD0008C911197831327C08C91841324C0159660
:103BE0008C91159781111FC012968D919C91A09177
:103BF000F704B091F8048A1B9B0B8C38910598F45C
:103C00008091FB048F7080618093FB04ED53FB4F28
:103C100080818F708061808385EF94E00E94071718
:103C20000E9413060895FB013196E770C0CFADE006
:103C3000B0E0EDE1FEE10C94A72E8C0186E0F801E6
:103C4000DE01189601900D928A95E1F7F8017080D7
:103C5000F580A280B380848195EF892E94E0992E1F
:103C60006090F904611018C0882399F0FF2009F4CE
:103C700013C1C8010E940A0D882309F40DC187E011
:103C8000F801A5EFB4E001900D928A95E1F70E944A
:103C9000C61DFF24F39453C0D090FA042091F7047A
:103CA0003091F804A501421B530BDD2009F4C4C078
:103CB0004C38510508F07AC0882359F38091F604F6
:103CC000C180E090FB04FFE0FE1508F459C0C81263
:103CD00015C08091F504871111C0F1104BC08E2DD5
:103CE0008F7080618093FB0485EF94E00E9407173A
:103CF0008091FB04F8018683F12C21C0F1103AC0B9
:103D000040E06C2D872D0E94A70B40E06C2D872D85
:103D10000E94A70BF82E8111EFCF888599850E940C
:103D2000FB0C292F22952F70903470F49F70223055
:103D3000A0F09923B1F0F8019681903190F48F2D85
:103D40002D96EEE00C94C32E2A5F2F70223068F07F
:103D5000C8010E940717FD2CF2CF992311F0882388
:103D600071F3805E883058F3F3CF803F40F3815F7A
:103D70008230F9CF8091FB0481608093FB04BCCF3B
:103D8000C8123CC08091F504871138C0F11036C0CC
:103D9000F801E682C8010E94071787E0F801A5EF45
:103DA000B4E001900D928A95E1F773CFE090FB04A7
:103DB000FFE0FE1550F085EF94E00E94071787E0C2
:103DC000F40111928A95E9F797CF882309F461CF1E
:103DD0009091F604F8018181981310C08091F50448
:103DE00087110CC0F1100AC0E682C8010E940717B3
:103DF00087E0F40111928A95E9F74BCFC8010E9440
:103E00000A0D882309F448C0FF2009F445C08091B9
:103E1000FB04803208F433CF8091F5049091F604CE
:103E20009A838983BC82AB826D821E82EF82CE012F
:103E300001960E94071723CF4C38510508F0BFCFD9
:103E4000882309F426CFFF2039F19091F60481816F
:103E5000981318C08091F504871114C08091FB0459
:103E600080FD9BCF803108F498CF8683807F803F90
:103E700009F490CF8681982F907F905F8F70892B67
:103E8000868388CFC8010E940A0D8111F8CE8091E7
:103E9000FB0481608093FB04C8010E940717F9CEE0
:103EA000ABE1B0E0E6E5FFE10C94B22E4E8B5F8B08
:103EB000688F798F8A8F9B8F91111092BA041D8A17
:103EC00086E0FE017696DE011F9601900D928A959E
:103ED000E1F78B89882329F061E0CE010F960E94DB
:103EE000DB0C87E0FE013F96DE01189601900D92F3
:103EF0008A95E1F7CE0108960E94171E81112BC00A
:103F000087E0FE013896DE01119601900D928A95A8
:103F1000E1F72091BB044091BC048C858823D9F043
:103F200030E0C90101968770992750E08417950702
:103F3000E9F097E0929FD001939FB00D1124A35414
:103F4000BB4FFE01319601900D929A95E1F7809357
:103F5000BB040E94130617E08091BC049091BB043F
:103F6000891312C06B96E3E00C94CE2E0E94160EBD
:103F70001092BB041092BC0487E0E5EFF4E0DF018F
:103F80001D928A95E9F7E7CF189FC0011124835449
:103F90009B4F0E94171E882329F38091BC0490E058
:103FA0000196877099278093BC04D6CFA6E0B0E035
:103FB000ECEDFFE10C94B12E0E94FB168C01809178
:103FC0008D0490918E048017910779F019821A82DE
:103FD0000E94FB16BC0149815A8180E090E00E945A
:103FE000501F10938E0400938D042696E4E00C94E9
:103FF000CD2E9C014FB7F8948091300490913104FC
:10400000A0913204B09133044FBF821B930B0895EB
:10401000AEE1B0E0EEE0F0E20C94AE2E4091AB04E5
:104020005091AC046091AD047091AE048091AF04E6
:104030009091B0040E949D152093AB043093AC0482
:104040004093AD045093AE046093AF047093B004FA
:1040500086E0EBEAF4E0DE01179601900D928A9576
:10406000E1F786E0FE013796DE011D9601900D9284
:104070008A95E1F786E0FE013D96DE0111960190FA
:104080000D928A95E1F786E0FE013196ABEAB4E045
:1040900001900D928A95E1F786E0EBEAF4E0DE010B
:1040A000599601900D928A95E1F786E0FE01799686
:1040B000DE01179601900D928A95E1F786E0FE01E8
:1040C0003796DE01119601900D928A95E1F786E010
:1040D000FE013196DE01539601900D928A95E1F72B
:1040E00086E0FE017396DE01179601900D928A9587
:1040F000E1F786E0FE013796ABEAB4E001900D925D
:104100008A95E1F70091AC041091AD04D090AE0413
:10411000E090AF04F090B00480916301882309F42B
:1041200043C080916801909169010E94F91F20911C
:10413000670130E028173907B8F580916A0190913E
:104140006B010E94F91F8D38910570F11D291E2900
:104150001F29102B81E0111101C080E080936C01B8
:104160000E9440081091B604882359F10E94FB1662
:10417000909369018093680110926B0110926A011B
:1041800080916401111105C0882371F00E94AF096C
:104190000BC0212F30E0082E02C0359527950A94D8
:1041A000E2F72170222391F30E945D0D811130C04E
:1041B0008091ED011092ED0181706E96E7E00C9414
:1041C000CA2E80916401111118C08111EDCF809128
:1041D0006801909169010E94F91F20916501309159
:1041E00066012817390700F7809164010E94BB0916
:1041F0001092690110926801D7CF212F30E002C0E0
:10420000359527958A95E2F72170222369F2DFCF51
:1042100081E090E0CFCF2F923F925F926F927F929A
:104220008F929F92AF92BF92CF92DF92EF92FF92C6
:104230000F931F93CF93DF9300D000D000D00F9245
:10424000CDB7DEB780910404882309F4F9C08091CA
:10425000EB019091EC010E94F91FC29708F4B2C0E3
:104260000E94FB169093EC018093EB0182E092E0B8
:10427000909301028093000280910005882309F445
:10428000FDC020911A0529832D8388E399E00E94BF
:10429000E11480911D050E9473050E94171484E3A8
:1042A00099E00E94E11480911C050E9473050E9410
:1042B00017143D81332309F4DBC081E399E00E94A8
:1042C000E114898182958F700E9473050E941714F2
:1042D00089810E9473050E94171489818450853357
:1042E00008F0C6C08DE299E00E94E1144981445073
:1042F000550BFA01E850F74F84910E94171484E59A
:1043000099E00E94E114809120050E944F050E94CF
:10431000C914809121050E944F050E94C914809103
:1043200023050E944F050E94C914809122050E9416
:104330004F050E94C9148BE499E00E94E11480911A
:104340000D05811101C085E00E944F0501960E9474
:10435000C91485E499E00E94E11480910F05805D05
:104360000E94171481E499E00E94E11480911405E1
:10437000811101C084E0805D0E9417148AE599E0F4
:104380000E94E11481E090E09A8389838091B604D1
:10439000882309F471C090E0098002C09595879543
:1043A0000A94E2F78170882309F466C089810E942B
:1043B00073050E941714A981BA811196BA83A98343
:1043C000509721F78091FE019091FF01892BA9F070
:1043D00080910404882389F08091020481110DC02A
:1043E0000E94EA132091FE013091FF0180E061E01C
:1043F00070E02115310509F047C08091030488233E
:10440000F9F00E94E70869837A838B839C8380910B
:10441000050490910604A0910704B0910804298135
:104420003A814B815C81281B390B4A0B5B0BDA010B
:10443000C9018F3F9F4FAF4FBF4710F40E94D81361
:1044400027960FB6F894DEBF0FBECDBFDF91CF9198
:104450001F910F91FF90EF90DF90CF90BF90AF90A2
:104460009F908F907F906F905F903F902F900895D6
:1044700081E00E94971443CF8FE59BCF88EB98E0B3
:104480000E94E1149FCF8F5F082F10E01B01082EC0
:1044900002C0220C331C0A94E2F7A10142235323E9
:1044A000452B89F390910A0490FD44C098013695FC
:1044B000279536952795922F8295880F80763FE134
:1044C000380F8093030120930601309304019093E9
:1044D000070124E630E047E050E061E071E088E762
:1044E0000E947A2C892B09F088CFA80125E0440F7F
:1044F000551F2A95E1F780910A0480FD23C04E5F85
:104500005D4F04E610E020E230E060E488E70E94BE
:10451000A12C892B09F071CFF101E095F0958091E4
:10452000FE019091FF01E823F923F093FF01E0934E
:10453000FE0163CF880F880F880F37E0380F20E027
:1045400093E0BFCFEBECF1E080E2DF011D928A95B2
:10455000E9F7E3E8F1E0FF83EE830FE711E087E896
:10456000C82E81E0D82E97E0592E77247394AE811F
:10457000BF818D91BF83AE83F80121918F01240FFC
:10458000352F311D2E5F3D4FE82FF0E0E553FE4FF4
:1045900080E090E0652C681A872C082E01C0880CFA
:1045A0000A94EAF77901A12CD701BD907D01B820CA
:1045B000662D6A19677070E0BB2D062E01C0BB0F17
:1045C0000A94EAF79B2E71956195710967707727B8
:1045D00001C0B6946A95EAF79B286081962A90827A
:1045E000A39468E0A612E0CF019631968830910539
:1045F00089F68E819F81C816D90609F0B8CF04E6E6
:1046000010E020E230E04BEC51E07FCFA0E1B0E0E1
:10461000ECE0F3E20C94A82E1A821982FE01339684
:1046200086E0DF011D928A95E9F787E8A82E81E0F0
:10463000B82E8E010F5F1F4F4801EE24E394F12C3A
:1046400021E9C22E21E0D22EF50181915F018F3F39
:1046500009F441C0F894E82FE295EF70F0E021A151
:104660008F70A70102C0440F551F8A95E2F7CA0157
:10467000922F982B91A392A18095892382A378945D
:1046800000C0EBE8F1E031E0712C21912F3F09F4FB
:1046900085C0A22FA295AF70A05EB0E08C9190E093
:1046A0002F7002C0959587952A95E2F78170811148
:1046B00075C0832F782A330FCE16DF0631F7F50148
:1046C000319780818F3F11F00E941B0850EA5A9564
:1046D000F1F7D8017C920F5F1F4FBBE8AB16B1E03A
:1046E000BB0609F0B1CF48E050E0B40184EF91E09F
:1046F0000E940A2F0091FD0110E0095E1B4F892BDB
:1047000009F44EC088E0F401A4EFB1E001900D92ED
:104710008A95E1F781E08093AF010E94FB169093A8
:10472000AE018093AD0180910005882309F491C00A
:104730001A8619861C861B8680912B048A3008F005
:1047400051C07E01E9E0EE0EF11C46EC51E1B701EB
:10475000C8010E94220C6701882309F468C041E661
:1047600052E1B701C8010E94220C882309F45FC0FE
:1047700010922B048091FC0190E044E050E0B601DF
:10478000895E9B4F0E940A2F21E02093AC01892B68
:1047900009F03FC06096EDE00C94C42E80E08ACF13
:1047A0008091AF01882309F4BECF8091AD01909133
:1047B000AE010E94F91F059708F4B5CF44E050E020
:1047C00064EF71E0C8010E940A2F892B41F084E058
:1047D000E4EFF1E0D80101900D928A95E1F7109293
:1047E000AF01A1CF8091AA019091AB010E94F91F66
:1047F000843F914008F0A5CF8091AC01882351F20D
:10480000FE01399684E0DF011D928A95E9F7109246
:10481000AC01E091FC01F0E0E95EFB4F89859A85EF
:10482000AB85BC8580839183A283B383B3CF809112
:104830002B048F3F39F40E94FB169093AB018093B9
:10484000AA01DACF8F5F80932B048A3008F492CFCD
:10485000F2CFF80180819181A281B38180933D04E0
:1048600090933E04A0933F04B093400464E070E052
:104870008DE394E00E94710880933C04C090410451
:10488000D0904204E0904304F09044048091A6014B
:104890009091A701A091A801B091A901C816D906CD
:1048A000EA06FB0609F476CFC092A601D092A701D2
:1048B000E092A801F092A9010E94E708C61AD70A5F
:1048C000E80AF90AC0928904D0928A04E0928B0423
:1048D000F0928C045FCFCDB7DEB7A4970FB6F894F3
:1048E000DEBF0FBECDBF85B7806885BF85B7806846
:1048F00085BF84B7877F84BF0FB6F894A895809151
:104900006000886180936000109260000FBE80E8B4
:1049100090E00FB6F89480936100909361000FBE11
:1049200089E198E090939D0180939C010E94F60A92
:104930000E944C0B8091E20084608093E2007894A6
:1049400080911F04882399F08091E9001091EC0078
:104950001795112717958F70182B1092E9008091E9
:10496000E80083FD0E943A0E1F701093E90082E078
:1049700084BD93E095BD9AEF97BD80936E00109231
:10498000890410928A0410928B0410928C040E9465
:10499000300D811102C00E949B1382E390E02091B0
:1049A000E300122F111F1127111F27FD0DC0AFE3C8
:1049B000BCE91197F1F700C000000197009779F763
:1049C0000E94F60A10921F041093000554985C9AF6
:1049D000879A8F98B5E0BA95F1F7000089B187986A
:1049E0008F9AE0EAEA95F1F78295817091E0892744
:1049F00080930105809308018091000581110E9438
:104A00002C2D809108018091080191E08927880F61
:104A1000880F8093FD0194E0981B9093FC0184EF34
:104A20000E941B0885EF0E941B0886EF0E941B084E
:104A300087EF0E941B080BE811E0D8018D918D01D2
:104A40008F3F11F00E941B08B1E001391B07A9F745
:104A500088E0E7E1F4E0DF01082F1D920A95E9F70D
:104A6000E4EFF1E0DF011D928A95E9F780E090E044
:104A70000E942E2F863E9E4F21F40E94300D811100
:104A800068C066EE7EEF80E090E00E94622F60E0FA
:104A900082E090E00E94442F81E08093B50461E0C1
:104AA00083E090E00E94442F60E074E184E090E0B5
:104AB0000E94622F60E086E090E00E94442F6FEF3A
:104AC00087E090E00E94442F40E050E0BA0188E087
:104AD00090E00E94562F60E084E290E00E94442F14
:104AE00060E087E190E00E94442F60E08CE090E07D
:104AF0000E94442F60E08DE090E00E94442F1982D4
:104B00001A821B821C821D821E821F82188648E028
:104B100050E068E170E0CE0101960E94342F40E041
:104B200050E0BA0180E290E00E94562F80E00E949F
:104B300078130E949B1340E050E0BA018FE090E0B0
:104B40000E94562F40E050E0BA0183E190E00E94BD
:104B5000562F82E090E00E94202F80930D0484E085
:104B600090E00E942E2F9093B9048093B8040E9485
:104B70000623EFE3FCE93197F1F700C000000E9443
:104B800006238091170480FF08C06FEF7FEF80E05D
:104B900090E00E94622F0E94370A83E090E00E941A
:104BA000202F0E94A5058091B6040E949305982F9E
:104BB00081E0943009F080E00E948C09809100052A
:104BC00091E08927880F80930A0480E88093090484
:104BD0000E94D52B6BE070E088E799E00E94AB1350
:104BE000882309F443C080910A0465E070E081FDE8
:104BF00019C183E799E00E94AB138823B9F16DE0F6
:104C000070E081E699E00E94AB13882379F10E945D
:104C1000E70869A37AA38BA39CA3DC01CB01805A8C
:104C20009541AF4FBF4F8093050490930604A09326
:104C30000704B0930804E2E0F2E080E092E0DF01D4
:104C40008C011D9201501040E1F7F0930102E093B6
:104C500000028FEF9FEF9093FF018093FE0181E0B0
:104C60008093040480930304109202048091000551
:104C7000811102C00E942F2D0E945815809163015E
:104C8000811105C081E0809363010E94CB0D80916A
:104C9000000581112EC08AE795E090935201809320
:104CA00051012DE030E030934D0120934C018DE215
:104CB00090E09093500180934F014FE755E050935F
:104CC0005A01409359013093550120935401909318
:104CD00058018093570143E555E150936201409399
:104CE000610130935D0120935C019093600180939A
:104CF0005F0180E090E00E942E2F863E9E4FA9F437
:104D00000E94300D882389F08FE090E00E94282FC8
:104D10008B01862F8F770E942815001F0027001F08
:104D20001370110F102B1093140589E091E09093EC
:104D3000900480938F0438E1A32EB12C46E1842E99
:104D400044E0942E80911F04853049F480911F0423
:104D5000853009F46AC00E94160E0E94AD080E94B8
:104D600006230EE014E097E1C92E94E0D92E21E944
:104D7000E22E21E0F22E9701B601F8019191DB01BC
:104D80008D91BD01D9014D919D0184238E169F0601
:104D900009F4A2C0981791F320900005612CF60148
:104DA00071906F01D7018D917D017822F8013190CA
:104DB0008F01371441F13724512C44244394842D1E
:104DC00083218823C1F02220B1F059826A820E9497
:104DD000FB169C838B83F1E0FD8391E0842D87217A
:104DE000811101C090E09E8349815A816B817C8151
:104DF0008D810E94501F5394440C26E05212DFCF45
:104E0000F80131977082639438E06312C8CF0E9432
:104E1000040A0E940820811162C10E940B210E9495
:104E2000EA1364C08EE699E0E6CE80911F048430D8
:104E300031F10E94D8130E94082010920B0420E444
:104E40000FB6F894A895A09260000FBE2093600062
:104E500083B7817F846083BF83B7816083BF789489
:104E6000889583B78E7F83BF0FB6F894A8958091FD
:104E70006000886180936000109260000FBE809196
:104E80000C04882309F462CF0E940623E7E1F4E0D2
:104E9000A1E9B1E081919D918923811105C034E0A0
:104EA000EF31F307B9F752CF80E189BD82E189BDC7
:104EB00009B400FEFDCF8091D8008F7D8093D8008B
:104EC0008091E00082608093E0008091E00081FDAD
:104ED000FCCF0E94160E3ACF98135ECF0E94D61FC9
:104EE0000E9408208111FBC00E940B210E94AD0886
:104EF00090911604891721F0809316040E94E70808
:104F000080911F04843009F4EDC08091000588234E
:104F100009F418CF0E94E708462F572FBC01809153
:104F20002604811178C08091220490912304A091DD
:104F30002404B09125048A019B01081B190B2A0B3C
:104F40003B0BD901C801843F9140A105B10508F48C
:104F500062C040932204509323046093240470930E
:104F600025048091200490912104019690932104BE
:104F70008093200419828E010F5F1F4F21E040E0D3
:104F800050E060E087E00E94AD12811106C0809180
:104F90002004909121040A97F4F181E08093260483
:104FA00080930305898191E0811101C090E0909385
:104FB000040590910205992309F4D7C19091010548
:104FC0009F5F882309F4D3C12091010582E0821BF1
:104FD000192F182B0E94490D462F572FBC016A012B
:104FE0007B012CEFC222812F110F990BAA0BBB0B57
:104FF00097018601082B192B2A2B3B2B09A31AA3F7
:105000002BA33CA3401751076207730721F0C90186
:10501000B8010E94961380910405882309F492CE6A
:105020000E94E7086B017C0180912704909128047D
:10503000A0912904B0912A04A7019601281B390BDD
:105040004A0B5B0B243031054105510580F1198273
:105050001A821B821C828E010F5F1F4F24E040E0EA
:1050600050E060E088E00E94AD128823C1F06981C1
:105070007A818091090590910A050E9439059093E3
:105080000A05809309056B817C8180910B059091C5
:105090000C050E94390590930C0580930B05C09276
:1050A0002704D0922804E0922904F0922A048091E7
:1050B0000E05882309F446CE80910D05898300E012
:1050C00010E020E0AE014F5F5F4F61E089E00E9499
:1050D000AD12882309F436CE10920E0533CE0E940D
:1050E000040A9BCE83E08093E9008091E80082FF70
:1050F0000CCF8091E80085FD06C08091E8008B7799
:105100008093E80002CF0E94C50A882371F0809145
:10511000E8008B778093E800E981E150E33190F576
:10512000F0E0E257F04D0C94F42E80E2E82EF12CE2
:105130008E010F5F1F4F8091E80085FD0AC08091AE
:10514000E8008B778093E8000E94C50A882399F3D2
:10515000DECF8091F100D8018C93B1E0EB1AF10819
:10516000E114F104A1F20F5F1F4FE5CF1A828CE02A
:105170008B831AC08A81833019F138F4813061F051
:105180008230D9F08FEF89830FC08430D9F71B822A
:105190001C821D821E8208C00E94E7080E94FA2E0F
:1051A0006B837C838D839E8340E250E0BE016F5F02
:1051B0007F4F82E00E94C60BA8CE0E94490DEECF21
:1051C0008B8190E0FE013496883091056CF79C014C
:1051D0003327D901A95EBB4F2F563E4F4C91D901C1
:1051E0002C91242321930196EFCF8A81823019F0EC
:1051F0008530D1F2C7CF0B811C812D813E8109A35F
:105200001AA32BA33CA3C901B8010E94FA2E0E9445
:105210009613CACF4C816B818A810E94730C9827A8
:10522000892798279E838D83BFCF2D813E8132278A
:10523000232732274C816B818A810E940213B4CFCD
:105240000E942913B1CF80E18A83AECF81E08A83A7
:1052500087EF8ECFCA80DB80DC24CD24DC248C81D8
:105260007601E80EF11C8E010B5F1F4FEC14FD045C
:1052700009F49ACF80E027EFC21621E0D20628F485
:10528000C601875F9D4F0E94202FD8018D938D010D
:10529000BFEFCB1ADB0AEACF0A811B811027012757
:1052A0001027FE0131966F01EC80EE0EFF2EF11CEF
:1052B000EC14FD0409F478CF073FF1E01F0740F438
:1052C000D60114966C91C801875F9D4F0E94442FB0
:1052D0000F5F1F4FBFEFCB1ADB0AEACF0E946813A4
:1052E00063CF85E0B1CFCA80DB80DC24CD24DC2411
:1052F0008C817601E80EF11C8E010B5F1F4FEC14C0
:10530000FD0409F451CF80E0E0EECE16E1E0DE06C8
:1053100020F4C60189960E94202FD8018D938D011B
:10532000BFEFCB1ADB0AEBCF0A811B8110270127C5
:105330001027FE0131966F01EC80EE0EFF2EF11C5E
:10534000CE14DF0409F430CF003EF1E01F0738F43B
:10535000D60114966C91C80189960E94442F0F5F64
:105360001F4FBFEFCB1ADB0AEBCF90E02ACE80E0D5
:105370002FCE78941F921FB61F9211248F939F9364
:10538000AF93BF938091300490913104A091320487
:10539000B09133040196A11DB11D80933004909308
:1053A0003104A0933204B0933304BF91AF919F9125
:1053B0008F911F901FBE1F9018951F920F920FB6CE
:1053C0000F9211242F933F934F935F936F937F938B
:1053D0008F939F93AF93BF93EF93FF938091E100DF
:1053E00082FF09C08091E20082FF05C08091E10048
:1053F0008B7F8093E1008091DA0080FF24C0809150
:10540000D80080FF20C08091DA008E7F8093DA0080
:105410008091D90080FF9BC080E189BD82E189BD78
:1054200009B400FEFDCF81E080931F048091B90193
:10543000811109C00E94F60A0E944C0B8091E20083
:1054400084608093E2008091E10080FF17C080912A
:10545000E20080FF13C08091E2008E7F8093E20023
:105460008091E20080618093E2008091D8008062A8
:105470008093D80019BC85E080931F048091E100DF
:1054800084FF29C08091E20084FF25C080E189BDAE
:1054900082E189BD09B400FEFDCF8091D8008F7DE7
:1054A0008093D8008091E1008F7E8093E10080910D
:1054B000E2008F7E8093E2008091E2008160809321
:1054C000E2008091B801882309F447C084E080930A
:1054D0001F0480911F048091E10083FF27C0809109
:1054E000E20083FF23C08091E100877F8093E10089
:1054F00082E080931F041092B8018091E1008E7FBA
:105500008093E1008091E2008E7F8093E2008091A1
:10551000E20080618093E20042E060E080E00E946F
:10552000150B8091F00088608093F000FF91EF915F
:10553000BF91AF919F918F917F916F915F914F91AB
:105540003F912F910F900FBE0F901F90189519BC8F
:1055500010921F041092B90176CF8091E30087FF6B
:1055600002C083E0B4CF81E0B2CF1F920F920FB69A
:105570000F921124FF920F931F932F933F934F93FA
:105580005F936F937F938F939F93AF93BF93CF93CB
:10559000DF93EF93FF9309EE10E0F8018081C09153
:1055A000EC00C795CC27C7958F70FC2EF82A108287
:1055B000C0EFD0E08881877F888378940E943A0E7C
:1055C000F8011082888188608883CF2DCF70C083D6
:1055D000FF91EF91DF91CF91BF91AF919F918F910B
:1055E0007F916F915F914F913F912F911F910F91FB
:1055F000FF900F900FBE0F901F901895289A219A38
:10560000229A23982B9880E58CBD0895F9019091FA
:105610006F019F3F09F06DC08F3F09F46AC062952A
:10562000660F607E60932A05423009F441C0433022
:1056300009F442C064604130E1F121E030E02E170E
:105640003F07E0F190912A052032310509F44CC062
:10565000C0F52830310509F442C02031310509F484
:1056600041C022303105B9F19CB520912A05922B19
:105670009CBD90912905992319F09DB591609DBD20
:1056800080936F01E82FE295EF70F0E031A1282FB1
:105690002F7081E090E001C0880F2A95EAF7932FE0
:1056A000982B91A392A18095892382A381E00895EC
:1056B000686060932A05C1CF6C60FBCF220F331F57
:1056C000BECF2034310599F093602038310561F662
:1056D00090932A05C9CF91E090932905C5CF21E089
:1056E000209329059160F4CF21E020932905926051
:1056F000EFCF80E00895CF93DF938EBD0E94FB161D
:10570000EC010DB407FE05C08EB590E0DF91CF919E
:1057100008950E94FB168C1B9D0B8436910588F31F
:105720008EEF9FEFF3CFCF93DF931EBC0E94FB164B
:10573000EC010DB407FE05C08EB590E0DF91CF916E
:1057400008950E94FB168C1B9D0B8436910588F3EF
:105750008EEF9FEFF3CF80916F018F3F29F1E82FFC
:10576000E295EF70F0E041A18F7021E030E0B901E7
:1057700002C0660F771F8A95E2F7CB01942F982B12
:1057800091A392A1892B82A38FEF80936F018DB596
:105790008E7F8DBD9CB580912A05809589238CBD17
:1057A00010922A051092290508951092B9008CE0F4
:1057B0008093B8000895A0E0B0E0E1EEFBE20C9425
:1057C000AA2EB82EEB010E94FB166C01EE24E39486
:1057D000F12CC431D10560F025E0E22EF12CCF3F51
:1057E000DC0731F0CE0164E170E00E948F2E7B0176
:1057F00084EAA82E94E8992E1092BC00A092BC00D6
:105800000E94FB16182F092F8091BC0087FF0CC047
:105810008091B900887F8830F9F08091B900887F45
:105820008031D1F00FEF08C0812F902F0E94F91F17
:10583000E816F90648F70EEF1FEFCF3FDC07E1F25D
:10584000C6010E94F91FC817D907B0F6C801CDB725
:10585000DEB7EBE00C94C62EB092BB009092BC0079
:105860000E94FB16182F092F8091BC0087FF0AC0E9
:105870002091B900287F283111F0203499F600E0FA
:1058800010E0E4CF812F902F0E94F91FE816F9064F
:1058900058F7D1CF0F931F93CF93DF93EB018093F2
:1058A000BB0084E88093BC000E94FB16182F092FD0
:1058B0008091BC0087FF11C02091B900287F81E052
:1058C00090E0283211F480E090E091958195910963
:1058D000DF91CF911F910F910895CF3FDC0741F3E6
:1058E000812F902F0E94F91FC817D90708F78EEF54
:1058F0009FEFEECFA0E0B0E0E0E8FCE20C94AD2E2C
:105900006B018A01F22EE32E622F732F0E94DB2B94
:10591000AC01E6010C0D1D1DC017D10711F057FF9A
:1059200009C084E98093BC00CA01CDB7DEB7E8E0C6
:105930000C94C92E6F2D7E2D89910E944A2CAC01AA
:10594000EBCFA0E0B0E0E7EAFCE20C94AD2EC62F6E
:105950006A017901B8010E94DB2B9C0197FD0DC003
:10596000B8018C2F0E944A2C9C01E601EC0CFD1C16
:10597000CE15DF0511F037FF09C084E98093BC0024
:10598000C901CDB7DEB7E8E00C94C92EB801899102
:105990000E944A2C9C01ECCF84E98093BC000895BE
:1059A0008EE14A9B03C081508111FBCF4A9BFECF01
:1059B00008955A9880E28A95F1F75A9A0895FC0161
:1059C0003BE03A95F1F798E020E080E031E040E1FB
:1059D0004A95F1F7880F4A9B02C08160232742E075
:1059E0004A95F1F7000040E14A95F1F79150911185
:1059F000EECF90E19A95F1F799B132E03A95F1F74F
:105A0000000040E14A95F1F792FB992790F992271F
:105A10002081920F90830895A1E0B0E0E2E1FDE2E1
:105A20000C94AF2E19828C017C01E60EF11C0E1530
:105A30001F0541F481E09981911180E02196E6E013
:105A40000C94CB2E0E94D02CCE0101960E94DF2C0C
:105A5000F80181938F01EBCF529A5A9A0895529888
:105A60005A9AEA9AE9E6F0E080818F7C8083089573
:105A70006150770B91E001C0990F6A95EAF7692FA1
:105A800090E021E0611108C0992399F05A9A80E2D0
:105A90008A95F1F75A980895362F3823332339F031
:105AA0005A9A922730E23A95F1F76695EBCF5A98D9
:105AB000F9CF5A98ECCFFF920F931F93CF93DF93B8
:105AC000EC018C01060F111DC017D10729F4CDB7C9
:105AD000DEB7E5E00C94CC2EF9900E94D92C68E05A
